:020000040800F2
:10000000C006002089010008E90600084D05000827
:10001000A50500082D0300083F130008000000009C
:100020000000000000000000000000005D09000862
:100030007D0300080000000045080008ED0A0008E4
:10004000A3010008A3010008A3010008A301000800
:10005000A3010008A3010008A3010008A3010008F0
:10006000A3010008A3010008A3010008A3010008E0
:10007000A3010008A3010008A3010008A3010008D0
:10008000A3010008A3010008A3010008A3010008C0
:10009000A3010008A3010008A3010008A3010008B0
:1000A000A3010008A3010008A3010008A3010008A0
:1000B000A3010008510B0008350C0008A30100083B
:1000C000A3010008A3010008A3010008A301000880
:1000D000A3010008E1100008A3010008A301000823
:1000E000A3010008A3010008A301000800F002F822
:1000F00000F03AF80AA090E8000C82448344AAF188
:100100000107DA4501D100F02FF8AFF2090EBAE885
:100110000F0013F0010F18BFFB1A43F0010318473B
:10012000201E0000401E0000103A24BF78C878C18D
:10013000FAD8520724BF30C830C144BF04680C60ED
:10014000704700000023002400250026103A28BF35
:1001500078C1FBD8520728BF30C148BF0B60704739
:100160001FB51FBD10B510BD00F031F81146FFF7E7
:10017000F7FF01F0FBF900F04FF803B4FFF7F2FFCF
:1001800003BC00F057F800000948804709480047C1
:10019000FEE7FEE7FEE7FEE7FEE7FEE7FEE7FEE737
:1001A000FEE7FEE704480549054A064B7047000094
:1001B000F10A0008ED000008C0000020C006002081
:1001C000C0020020C002002070477047704775468B
:1001D00000F02CF8AE4605006946534620F00700B3
:1001E000854618B020B5FFF7DDFFBDE820404FF091
:1001F00000064FF000074FF000084FF0000B21F011
:100200000701AC46ACE8C009ACE8C009ACE8C009DD
:10021000ACE8C0098D46704710B50446AFF30080C6
:100220002046BDE81040FFF7A8BF00000048704717
:100230005C00002001491820ABBEFEE7260002004A
:100240007047000010B54021194800F045F98021A1
:10025000174800F03FF92021154800F03DF9102122
:10026000134800F037F90121124800F035F9022156
:10027000104800F02FF94FF480610E4800F02CF97F
:100280004FF400610B4800F025F900214FF0804049
:1002900000F08FFE6421080700F089FE00214FF076
:1002A000804000F088FE6421080700F086FE10BD43
:1002B00000080140000C014010B54021194800F031
:1002C0000BF98021174800F005F92021154800F0AE
:1002D00003F91021134800F0FDF80121124800F045
:1002E000FBF80221104800F0F5F84FF480610E4849
:1002F00000F0F2F84FF400610B4800F0EBF86421D5
:10030000080700F056FE00214FF0804000F04FFE3D
:100310006421080700F04FFE00214FF0804000F0FC
:100320004CFE10BD00080140000C014000BFFEE77C
:1003300008B510208DF803008020ADF800000320E0
:100340008DF802000121082000F08EFA694602486B
:1003500000F02CF808BD0000000C014010B5044668
:10036000012C04D18021044800F0B4F803E080217E
:10037000014800F0B1F810BD000C0140704700EBDF
:10038000C001C9004FF0E0225161002191610521B7
:10039000116100BF4FF0E021096901F480310029AB
:1003A000F8D004214FF0E022116170472DE9F041AF
:1003B000024600250026002000230024002791F893
:1003C00003C00CF00F0591F803C00CF0100CBCF149
:1003D000000F03D091F802C04CEA050591F800C067
:1003E000BCF1000F31D0146800202BE04FF0010C5D
:1003F0000CFA00F3B1F800C00CEA03069E4220D1CB
:1004000083004FF00F0C0CFA03F7BC4305FA03FC12
:100410004CEA040491F803C0BCF1280F06D14FF058
:10042000010C0CFA00FCC2F814C00AE091F803C0F9
:10043000BCF1480F05D14FF0010C0CFA00FCC2F8DA
:1004400010C0401C0828D1D31460B1F800C0BCF122
:10045000FF0F34DD546800202EE000F1080C4FF04F
:10046000010808FA0CF3B1F800C00CEA03069E423A
:1004700021D183004FF00F0C0CFA03F7BC4305FAAF
:1004800003FC4CEA040491F803C0BCF1280F05D129
:1004900000F1080C08FA0CF8C2F8148091F803C0B7
:1004A000BCF1480F07D100F1080C4FF0010808FA21
:1004B0000CF8C2F81080401C0828CED35460BDE868
:1004C000F0810246002093680B400BB1012000E050
:1004D00000207047416170470161704710B52021CD
:1004E0000148FFF7EEFF10BD000C014010B54FF4BE
:1004F00080510248FFF7E5FF10BD000000080140F1
:1005000010B54FF480710248FFF7DBFF10BD00000B
:100510000008014010B54FF400610248FFF7D1FF19
:1005200010BD00000008014010B54FF400710648EE
:10053000FFF7D2FF2D20FFF722FF4FF40071024892
:10054000FFF7C8FF10BD0000000C014000BFFEE730
:100550001CB50121042000F087F948208DF8070020
:100560004FF4C850ADF8040003208DF8060001A92F
:100570000A48FFF71BFF0121082000F075F9482009
:100580008DF803002020ADF8000003208DF8020054
:1005900069460348FFF70AFF1CBD00000008014040
:1005A000000C014000BFFEE710B580211948FFF79D
:1005B00093FF40211748FFF78DFF20211548FFF7D3
:1005C0008BFF10211348FFF785FF02211248FFF728
:1005D00083FF01211048FFF77DFF4FF480610E4833
:1005E000FFF77AFF4FF400610B48FFF773FF00211C
:1005F0004FF0804000F0DDFC5021880600F0D7FC71
:100600005021880600F0D7FC5021880600F0D5FC68
:1006100010BD000000080140000C014010B5402151
:100620001948FFF759FF80211748FFF753FF1021A2
:100630001548FFF751FF20211348FFF74BFF012119
:100640001248FFF749FF02211048FFF743FF4FF41C
:1006500000610E48FFF740FF4FF480610B48FFF741
:1006600039FF5021880600F0A4FC00214FF08040A3
:1006700000F09DFC5021880600F09DFC502188066A
:1006800000F09BFC10BD000000080140000C014080
:100690001CB50121042000F0E7F810208DF80700B8
:1006A000F020ADF8040003208DF8060001A90C48E5
:1006B000FFF77CFE0121082000F0D6F810208DF80D
:1006C000030040F60340ADF8000003208DF802005F
:1006D00069460448FFF76AFE00F04AF81CBD0000B6
:1006E00000080140000C01407047000070B5002177
:1006F00000230F22C47804B3154C246804F4E0648A
:10070000C4F5E064210AC1F10403CA40447804FA44
:1007100003F184781440214309010E4C0678A15559
:10072000047804F01F050124AC4005786D11AD007C
:1007300005F1E025C5F8004109E0047804F01F0543
:100740000124AC40044D0678761145F8264070BD72
:100750000CED00E000E400E080E100E0024901432C
:10076000024A1160704700000000FA050CED00E03D
:1007700000B589B00121084600F066F80121042087
:1007800000F072F818208DF8230003208DF8220065
:100790000F20ADF8200008A92948FFF707FE4FF009
:1007A000804000F099FA0020ADF81A00ADF816006C
:1007B0006320ADF8180040F2CF20ADF814000020FF
:1007C0008DF81C0005A94FF0804000F0F9FB01A84E
:1007D00000F0E3FB6020ADF804000020ADF80C0051
:1007E0000120ADF806000020ADF80A0001A94FF085
:1007F000804000F077FA01A94FF0804000F0C8FA7D
:1008000001A94FF0804000F023FB01A94FF0804088
:1008100000F078FB0821C80600F0B0FA0821C806ED
:1008200000F008FB0821C80600F062FB0821C8069A
:1008300000F0A6FB0121880700F028FA09B000BDEE
:10084000000801407047000029B1064AD2690243FE
:10085000044BDA6104E0034AD2698243014BDA6156
:10086000704700000010024029B1064A9269024315
:10087000044B9A6104E0034A92698243014B9A61F6
:10088000704700000010024030B500210022002413
:1008900000232D4D6D6805F00C0121B1042905D010
:1008A000082923D105E0294D056022E0274D056088
:1008B0001FE0254D6D6805F47012234D6D6805F439
:1008C0008034022505EB92421CB9214D5543056049
:1008D0000BE01D4D6D6805F400351DB11C4D5543F1
:1008E000056002E0194D5543056002E0174D0560B3
:1008F00000BF00BF144D6D6805F0F0010909154DEA
:100900006B5C0568DD4045600F4D6D6805F4E06186
:10091000090A104D6B5C4568DD4085600A4D6D68C5
:1009200005F46051C90A0B4D6B5C4568DD40C5603C
:10093000054D6D6805F44041890B074D6B5CC5683A
:10094000B5FBF3F5056130BD0010024000127A00DE
:1009500000093D000000002010000020704700004A
:1009600000B587B001218803FFF77EFF0121042035
:10097000FFF77AFF4FF4164003900020ADF81800FF
:100980000C20ADF816000020ADF81400ADF81200F0
:10099000ADF8100003A9194800F060FC01211748C8
:1009A00000F000FC48208DF80B004FF48060ADF89B
:1009B000080003208DF80A0002A91148FFF7F6FC91
:1009C000012240F225510D4800F022FC20210B4865
:1009D00000F0D0FB4FF4A060FFF7C0FE25208DF89B
:1009E000040001208DF807008DF805008DF8060041
:1009F00001A8FFF77BFE07B000BD000000380140F2
:100A00000008014010B500F001F810BD0CB5002041
:100A1000019000903348006840F48030314908600C
:100A200000BF3048006800F4003000900198401C7E
:100A30000190009818B90198B0F5A06FF1D129483C
:100A4000006800F4003010B10120009001E00020A7
:100A500000900098012843D12348006840F010001E
:100A6000214908600846006820F003000860084635
:100A7000006840F0020008601A4840681949486060
:100A80000846406848600846406840F48060486016
:100A90000846406820F47C1048600846406840F4EE
:100AA000E81048600846006840F08070086000BFA9
:100AB0000C48006800F000700028F9D00948406830
:100AC00020F00300074948600846406840F00200F3
:100AD000486000BF0348406800F00C000828F9D1C6
:100AE0000CBD0000001002400020024070470000D2
:100AF00010B51348006840F001001149086008462D
:100B00004068104908400E494860084600680E4990
:100B100008400B4908600846006820F480200860FF
:100B20000846406820F4FE0048604FF41F008860CB
:100B3000FFF768FF4FF000600449086010BD000037
:100B4000001002400000FFF8FFFFF6FE08ED00E095
:100B50002DE9F05F2D48008847F23051884204DCCF
:100B60002A480088401C294908800121284800F0B3
:100B700099F8012847D127480088401C254908805A
:100B800008460088C8282EDB2348007840B9FFF7C4
:100B9000CBFC00202149088001201F4908701FE07C
:100BA0001D48007801281BD11C48008801F0B7F8C7
:100BB00080461B4A1B4B01F0C5F8064600221A4B23
:100BC00001F0C0F8044600224FF0804300F022FFFD
:100BD000824601F077F81549088000200E49087018
:100BE00000200C4908804FF480711148FFF769FC20
:100BF000012804D109480088401C084908800121C7
:100C0000034800F040F8BDE8F09F00001600002007
:100C100000040040180000201A0000201C000020E2
:100C20002D431CEBE2361A3F009AE04014000020EE
:100C3000000C014010B501210C4800F033F80128E8
:100C400013D1FFF74BFC0A490880FFF74FFC094915
:100C50000880FFF75FFC08490880FFF751FC07494F
:100C600008800121014800F00EF810BD0008004086
:100C70002E00002030000020340000203200002030
:100C8000CA4302827047CA430282704721B1028878
:100C900042F00102028004E002884FF6FE731A401F
:100CA0000280704730B50246002000230024158AD8
:100CB00005EA0103958905EA010413B10CB101208D
:100CC00000E0002030BD1AB183890B43838102E02C
:100CD00083898B438381704701894FF6F8721140F5
:100CE0000181704770B5002400220023058C4FF667
:100CF000FE7635400584028C8388048B4FF68F7511
:100D00002C40B51E2C400D882C43751E2A400D89A1
:100D10002A434D882A43144DA8420BD0134DA842B4
:100D200008D0134DA84205D0124DA84202D0124D52
:100D3000A84213D14FF6F7752A404D892A434FF642
:100D4000FB752A408D882A434FF6FF652B404FF6EE
:100D5000FF552B408D892B43CD892B438380048302
:100D6000CD888586028470BD002C0140003401408E
:100D70000040014000440140004801400A46002173
:100D8000018B4FF6F7731940114301837047000040
:100D900070B5002400220023058C4FF6EF76354015
:100DA0000584028C8388048B48F6FF752C404FF62F
:100DB000FF452C400D884FF6FF7606EA05252C43AB
:100DC0004FF6DF752A400D8906EA05152A434D883E
:100DD00006EA05152A43154DA84202D0144DA84233
:100DE0001DD14FF67F752A404D894FF6FF7606EAF2
:100DF00005152A434FF6BF752A408D8806EA05156A
:100E00002A434FF6FF352B404FF2FF752B408D895B
:100E100006EA85052B43CD8906EA85052B438380A9
:100E20000483CD880587028470BD0000002C01403A
:100E3000003401400A460021018B4FF2FF73194034
:100E40004FF6FF7303EA0223194301837047000042
:100E500070B5002400220023058C4FF6FF66354054
:100E60000584028C8388848B4FF68F752C404FF657
:100E7000FC752C400D882C434FF6FF552A400D89F8
:100E80004FF6FF7606EA05252A434D8806EA052532
:100E90002A43154DA84202D0144DA8421DD14FF24D
:100EA000FF752A404D894FF6FF7606EA05252A434D
:100EB0004FF6FF352A408D8806EA05252A434EF66F
:100EC000FF752B404DF6FF752B408D8906EA051501
:100ED0002B43CD8906EA05152B4383808483CD8877
:100EE0008587028470BD0000002C01400034014061
:100EF0000A460021818B4FF6F77319401143818315
:100F00007047000070B5002200230024058C4EF6C7
:100F1000FF7635400584038C8488828B48F6FF7504
:100F20002A404FF6FF452A400D884FF6FF7606EA25
:100F300005252A434DF6FF752B400D8906EA053538
:100F40002B434D8806EA05352B430B4DA84202D0B2
:100F50000A4DA84208D14BF6FF752C408D894FF6FB
:100F6000FF7606EA85152C4384808283CD88A0F81D
:100F70004050038470BD0000002C0140003401404B
:100F80000A460021818B4FF2FF7319404FF6FF7321
:100F900003EA0223194381837047002101804180C5
:100FA0008180C180018141818181C18170478186B9
:100FB00070470187704781877047A0F840107047DD
:100FC000002202881D4B98420ED01D4B98420BD038
:100FD000B0F1804F08D01B4B984205D01A4B984275
:100FE00002D01A4B984204D14FF68F731A404B88A7
:100FF0001A43174B984207D0164B984204D04FF62D
:10100000FF431A40CB881A4302808B8883850B8864
:1010100003850A4B98420BD0094B984208D00E4BDF
:10102000984205D00D4B984202D00D4B984201D109
:101030000B7A03860123838270470000002C014055
:10104000003401400004004000080040000C004053
:1010500000100040001400400040014000440140E6
:10106000004801401FB501210420FFF7EDFB1B489C
:10107000FFF732FE0020ADF80A00ADF806000920A7
:10108000ADF808004720ADF8040000208DF80C00F2
:1010900001A91248FFF794FF01211048FFF7F0FD66
:1010A000012211460D48FFF70EFE4FF4A060FFF736
:1010B00055FB1E208DF8000001208DF80300022052
:1010C0008DF8010001208DF802006846FFF70EFB45
:1010D00001210248FFF7DAFD1FBD000000080040B3
:1010E00010B540F225511E4800F068F8002835D0B0
:1010F0001B4800F01FF91B491B4A128821F81200F7
:1011000019480088401C1849088016480088A32800
:1011100001D00020088014480088022806D1114818
:101120004088B32802D000200F4908800E4800886C
:1011300005280ED10B480089C3280AD109488088A8
:101140000A4908800748C0880949088000200649E4
:10115000088040F22551024800F015F810BD00004B
:1011600000380140400000202C0000202800002012
:101170002A00002001F40072B2F5007F00D100BF08
:10118000CA430280704710B50022002340F66A145B
:10119000A14200D100BF0A1201249440A3B2DC4353
:1011A000048010BD21B1828942F40052828104E0A2
:1011B00082894DF6FF731A408281704770B50246EE
:1011C000002400230025002040F66A16B14200D119
:1011D00000BFC1F3421501F01F03012606FA03F315
:1011E000012D02D19689334006E0022D02D1168AE4
:1011F000334001E0968A33400C12012606FA04F4CB
:101200001688344013B10CB1012000E0002070BDFD
:10121000F0B50346002400260025002040F66A179A
:10122000B94200D100BF1846C1F3421401F01F06B5
:10123000012707FA06F5012C01D10C3004E0022C3D
:1012400001D1103000E014301AB107682F43076055
:1012500002E00768AF430760F0BD00002DE9F047EA
:1012600086B005460E460024A24600BFA1460027D0
:10127000B08900B100BF2F462C8A4CF6FF700440A5
:10128000F08804432C82AC894EF6F3100440B088F9
:1012900031890843718908430443AC81AC8A4FF615
:1012A000FF400440B0890443AC8201A8FFF7ECFA88
:1012B0001F48874202D1DDF810A001E0DDF80CA044
:1012C000A88900F4004040B10AEBCA0000EB0A1004
:1012D00031684900B0FBF1F807E00AEBCA0000EB07
:1012E0000A1031688900B0FBF1F86420B8FBF0F017
:1012F00004012009642101FB1089A88900F4004041
:1013000040B1322000EBC900B0FBF1F000F0070063
:10131000044308E0322000EB09106421B0FBF1F037
:1013200000F00F0004432C8106B0BDE8F0870000F8
:101330000038014001468888C0F30800704700BFAC
:10134000FEE7000010B580212148FFF7C5F84021D5
:101350001F48FFF7BFF820211D48FFF7BDF81021F7
:101360001B48FFF7B7F802211A48FFF7B5F801212B
:101370001848FFF7AFF84FF480611648FFF7ACF854
:101380004FF400611348FFF7A5F800BF6421080778
:10139000FFF70FFE64210807FFF709FE00214FF059
:1013A0008040FFF708FE64210807FFF706FE0A48A1
:1013B00000880128EAD1094800880028E6D10848B9
:1013C00000880028E2D1074800880028DED110BD3F
:1013D00000080140000C01402E00002030000020D9
:1013E000340000203200002010B540212148FFF7D2
:1013F00073F880211F48FFF76DF810211D48FFF793
:101400006BF820211B48FFF765F801211A48FFF708
:1014100063F802211848FFF75DF84FF400611648A1
:10142000FFF75AF84FF480611348FFF753F800BFF5
:1014300064210807FFF7BDFD64210807FFF7B7FD2A
:1014400064210807FFF7B7FD00214FF08040FFF748
:10145000B4FD0A4800880028EAD10948008800281D
:10146000E6D1084800880028E2D107480088012812
:10147000DED110BD00080140000C01402E0000200C
:1014800030000020340000203200002010B5402140
:101490001848FFF721F880211648FFF71BF8202194
:1014A0001448FFF719F810211248FFF713F801212B
:1014B0001148FFF711F802210F48FFF70BF84FF41E
:1014C00080610D48FFF708F84FF400610A48FFF704
:1014D00001F864210807FFF76CFD64210807FFF796
:1014E00066FD64210807FFF766FD64210807FFF722
:1014F00064FD10BD00080140000C014010B5402102
:101500001848FEF7E9FF80211648FEF7E3FF202187
:101510001448FEF7E1FF10211248FEF7DBFF01211E
:101520001148FEF7D9FF02210F48FEF7D3FF4FF411
:1015300080610D48FEF7D0FF4FF400610A48FEF7C6
:10154000C9FF2821C806FFF734FD64210807FFF70B
:101550002EFD2821C806FFF72EFD64210807FFF79E
:101560002CFD10BD00080140000C0140FEF7E0FE1C
:10157000FFF778FDFFF7F4F9FEF7EAFFFFF788F8C9
:101580000020FEF7EBFE0024BAE1DE48008860B9D7
:10159000DD480088012808D1DC480088012804D1F2
:1015A000DB48008808B9FFF771FFD648008858B9B2
:1015B000D548008840B9D5480088012804D1D448CE
:1015C000008808B900F0B2F9CE48008858B9CE4872
:1015D0000088012807D1CD48008820B9CC48008870
:1015E00008B9FFF78BFFC748008801280AD1C64811
:1015F000008838B9C548008820B9C548008808B9AE
:10160000FEF7D2FFBF48008858B9BF48008840B9EC
:10161000BE48008828B9BE480088012801D1FEF7DD
:10162000FDFFB848008801280AD1B7480088012882
:1016300006D1B6480088012802D1B548008868B1B3
:10164000B048008801280ED1AF48008801280AD18F
:10165000AE48008838B9AE48008820B9AD48008847
:1016600008B9FFF76FFEAC4800881E2879DCAA484D
:101670000088002875D00220A64908800020A749CC
:10168000088023E0A6480088AA2809DCA44800882E
:1016900030B1601CC4B2072C02DB01209D490880D8
:1016A0000020A049088006E0FEF7CCFD9D48008898
:1016B000401C9C4908809B48008842F21071884277
:1016C000F2DD96480088401C9449088093480088C1
:1016D0001128D7DD00209149088006E0FFF7D6FEEB
:1016E0008E480088401C8D4908808C48008846F24E
:1016F000A8118842F2DD87480088012801D004B192
:10170000002400208549088023E085480088AA2815
:1017100009DC8348008830B1601CC4B2052C02DBB0
:1017200001207C49088000207E49088006E0FEF701
:10173000C3FD7C480088401C7A49088079480088AD
:1017400043F2BC418842F2DD74480088401C734972
:101750000880724800880E28D7DB00206F49088077
:1017600014E04AE000206F49088006E0FFF78EFE93
:101770006C480088401C6B4908806A480088022831
:10178000F4DD66480088401C64490880634800888E
:1017900047F230518842E5DD00206049088013E0BF
:1017A00000206049088006E0FEF786FD5D4800885D
:1017B000401C5C4908805B4800880228F4DD5748DB
:1017C0000088401C55490880544800884AF210415E
:1017D0008842E5DD00BFFFF759FE4A48008801282E
:1017E000F9D0494800880128F5D0484800880128E8
:1017F000F1D0474800880128EDD0424800880128F0
:101800000AD141480088012806D1404800880128B3
:1018100002D13F48008878B13A480088012811D1A8
:101820003948008801280DD138480088012809D19D
:1018300037480088012805D136480088012801D1A1
:10184000FFF780FD2F48008801280AD12E48008824
:10185000012806D12D480088012802D12C48008893
:1018600078B128480088012811D12748008801282C
:101870000DD126480088012809D125480088012873
:1018800005D124480088022801D1FFF7ADFD244886
:101890000088192834DC2248008880B300F07EF8E4
:1018A00021480088401C2049088000201B490880EE
:1018B00014E000201B49088007E00120FEF74EFDE0
:1018C00018480088401C17490880164800880528D9
:1018D000F3DD12480088401C104908800F4800883A
:1018E0004CF250318842E4DD0020FEF737FD0E480F
:1018F0000088012804D101E000F050F8FCE7FFE780
:1019000043E600002E0000203000002034000020BC
:10191000320000203C0000202A0000203600002079
:1019200028000020380000203A00002010B5402197
:101930001848FEF7D1FD80211648FEF7CBFD202187
:101940001448FEF7C9FD10211248FEF7C3FD01211E
:101950001148FEF7C1FD02210F48FEF7BBFD4FF411
:1019600080610D48FEF7B8FD4FF400610A48FEF7AC
:10197000B1FD64210807FFF71CFB2821C806FFF70B
:1019800016FB64210807FFF716FB2821C806FFF79E
:1019900014FB10BD00080140000C014010B52021CF
:1019A0001A48FEF799FD10211848FEF793FD4021D3
:1019B0001648FEF791FD80211448FEF78BFD0121AA
:1019C0001348FEF789FD02211148FEF783FD4FF40D
:1019D00080610F48FEF780FD4FF400610C48FEF770
:1019E00079FD00214FF08040FFF7E1FA00214FF030
:1019F0008040FFF7DEFA00214FF08040FFF7DBFA6E
:101A000000214FF08040FFF7D8FA10BD00080140D8
:101A1000000C01402DE9C04130B4DFF8A0C23CEA1F
:101A2000111418BF3CEA131400F0EC8081EA03059E
:101A30001CEA111444EAD57418BF1CEA131500F00F
:101A4000C780A4EB05044FF0004545EAC12145EAF3
:101A5000C32341EA505143EA525304F17F7499423F
:101A600004F500344FEAC0204FEAC22208BF90427A
:101A700000F09C804FEA13650FF24016765D4FEA46
:101A8000134506FB05F7C7F1807706FB07F74FEA1A
:101A9000D737A7FB03687642C8F58038A7FB06CE88
:101AA00038BFA8F1010807FB08E64FF0000EA6FBBF
:101AB000028CE6FB03CEDCF1000CCEF1004E38BF09
:101AC000AEF1010EA6FB0C584FF000074FF00005D9
:101AD000E6FB0E87A1FB08C6A0FB07CE16EB0E06A1
:101AE00045F10005E1FB076515F1E04E7EBFA4F569
:101AF00080345FEA46066D4116F1800745F1000526
:101B00004FEA17274FEA066647EA0567A6F1DE4661
:101B1000B6F1805F4FEA15251FD9384624F0010C35
:101B200005EBC471BCF1FE6F01EB0C1102D8F0BCE7
:101B3000BDE8008124425CBF01F5801E9EEAC47F9F
:101B400002D4F0BCBDE80081244238D4F0BCA1F13D
:101B5000C041BDE8004100F0EDB94FEAD22242EAAF
:101B600043524FEAD323A7FB02864FEAD02040EA34
:101B7000415007FB03661EEA0E0F4FEAD12105FB19
:101B8000026658BFA6EB0056B6EB00564FEA520E5F
:101B90004EEAC37E18EB0E0E56EB530EBDD518EB76
:101BA00002085E417F1C55F10005B6E74FF4801531
:101BB0004FF000074FF000064FF00008ADE7F0BC13
:101BC0004FF0000001F1C04101F00041BDE800818B
:101BD00011EA0C1F0CEA131500D00CE013EA0C1FDD
:101BE00000F025804FF00000F0BC81EA030101F015
:101BF0000041BDE80081F0BCBDE8004181EA03017D
:101C000000F098B9F0BCBDE8004170B500F044F9AF
:101C1000097EFC3E00F007B881EA03014FF00000A6
:101C200001F00041704781EA030100F083B9F0BC84
:101C3000BDE800414FF0000021497047FFFDFBF96E
:101C4000F7F5F4F2F0EEEDEBE9E8E6E4E3E1E0DEEF
:101C5000DDDBDAD8D7D5D4D3D1D0CFCDCCCBCAC861
:101C6000C7C6C5C4C2C1C0BFBEBDBCBBBAB9B8B788
:101C7000B6B5B4B3B2B1B0AFAEADACABAAA9A8A87B
:101C8000A7A6A5A4A3A3A2A1A09F9F9E9D9C9C9B49
:101C90009A999998979796959594939392919190F4
:101CA0008F8F8E8E8D8C8C8B8B8A89898888878785
:101CB0008685858484838382828181800000FF07FA
:101CC0000000F87F4FEA1153A3F58063D3F11E03A0
:101CD000A8BFD3F1200C08DB4FF0004242EAC1223A
:101CE00052EA505232FA03F0704709420BD4102BDB
:101CF000C4BF0020704703F5787CBCF1FF3F05D0DE
:101D00004FF0FF3070474FF00000704770B500F0A3
:101D1000C3F800BF4992248000207047F0E7B0FA72
:101D200080F310FA03F10AD0C3F11D0303F58063B9
:101D30004FEA41504FEA035202EBD12170474FF076
:101D400000007047DFF848C170B51CEA111E1EBFC5
:101D50001CEA13159EEA0C0F95EA0C0F00F06F8039
:101D600081EA030423EA4C134EEAD47E21EA4C11A3
:101D700041F4801143F48013AE44A1FB024CA0FB5C
:101D80000365AEF17F7E361955EB0C05A1FB034CC4
:101D90004CF10003A0FB021C16EB0C06654153F14D
:101DA0000003094218BF46F0010613F4007F0BD16F
:101DB0004FEA03314FEA0530340341EA155140EA56
:101DC00016506FF003020AE04FEAC3214FEAC52024
:101DD000F40241EA555140EA56506FF0020202EB1C
:101DE0002E4201EB025585EACE710AD05FEA440C1F
:101DF00018BF24F0004450F1000041F1000120EA36
:101E0000D47040F2FE7C624500D270BDA84214BF7F
:101E10004FF080444FF04044002E08BF0024BEF134
:101E2000806FA8BFA1F1C041BDE8704080F2828000
:101E30004FF0000001F1C04101F0004170479EEAFF
:101E40000C0F0CEA131518BF95EA0C0F06D04FF0D3
:101E5000000081EA030E0EF0004170BD00F01CF896
:101E60008900013E00F007B800F009B84FEA430CC2
:101E70005FEA5C5C08D081EA030100F05BB84FEADE
:101E8000410C5FEA5C5CF6D14FF0000001497047FD
:101E90000000FF070000F87F0EF1020E2EF0030E87
:101EA0005EF8046B364205D4012A43EB030515F5B1
:101EB000001F12D8012841EB010C1CF5001F0CD8A3
:101EC0000ED14FEAD17C15F5001F0CEB4C0C0CF138
:101ED000020C08BF4CEBD37C04E04FF0080C01E08F
:101EE0004FEAD37C0CEB4C0526FA05F606F0070604
:101EF000B6F1040C06D20EEB860CBDE870404CF037
:101F0000010C6047DFE80CF0090B02024FF00041C2
:101F10004FF00000A1F5002170BD194610460128C0
:101F200051EB010418BFD4F5001484BF002001F068
:101F3000004170BD0808A0F500114FEA310170475B
:101F4000601F000800000020400000002801000879
:101F5000A01F000840000020800600004401000887
:101F6000000000000102030401020304060708093F
:101F7000020406080000000000000000000000004D
:101F80000000000000000000000000000000000051
:101F90000000000000000000000000000000000041
:04000005080000ED02
:00000001FF
